:020000040000FA
:10000000A84400205DEA0000FB75010049EA0000F9
:1000100049EA000049EA000049EA00000000000047
:10002000000000000000000000000000D5EB000010
:1000300049EA00000000000071EB000049EA0000FE
:1000400075ED000091A3010075ED000075ED000055
:1000500075ED000075ED000075ED000075ED000018
:10006000A7A3010075ED000075ED00007BA3010062
:1000700075ED000075ED000075ED000075ED0000F8
:1000800075ED000075ED000075ED000075ED0000E8
:1000900075ED000075ED000075ED000075ED0000D8
:1000A00075ED000075ED000075ED000075ED0000C8
:1000B00075ED000075ED0000064B074A5B780260A5
:1000C0004FF422728280C37108220023827103726E
:1000D000704700BFC0060020DBCE0000064B074A79
:1000E0005B7A02604FF49C728280C3710822FF2306
:1000F00082710372704700BFC0060020EFC9000084
:10010000F8B5C41D002824F00704054614BF204696
:10011000002000F07BFA071E02DA6FF00B00F8BD3A
:10012000254EB1887088F379B2790331033089B2F2
:1001300080B20AF0B4FD0028EFDB737831783C44DC
:1001400003341944002D24F0030400FB01F114BF13
:100150002046002000F0E0FB23180DB9002BDCDB6B
:10016000717A184679B10333002D23F0030414BFCC
:1001700020460020728900F041FC0028CDDB20449D
:100180000DB90028C9DB317A91B1737A83B1C41DEE
:10019000002D24F0070414BF2046002002F08EFF3B
:1001A0000028BADB0DB10020B9E72018B7D5B4E7B5
:1001B000002DF8D1B3E700BFC00600201FB572B60E
:1001C000194BDD68EDB9BFF34F8F1849184BCA685A
:1001D00002F4E0621343CB60BFF34F8F00BFFDE733
:1001E0002346B2FBF6F25C1C002AF9D104AEDCB265
:1001F00056FA83F303F80C2C0A2234B901A8A84755
:10020000E1E7024600230A26EDE7631E04AEDCB2F6
:1002100056FA83F3B0FBF2F602FB1600303003F817
:100220000C0C3046E9E700BFC006002000ED00E0FE
:100230000400FA0507B50A4BDA88ADF800206846D5
:100240009A885B88ADF80420ADF8023001F0BCFC60
:1002500018B1FD219C20FFF7B1FF03B05DF804FB4E
:10026000C006002010B5044628B308F087FF10B977
:100270004FF0FF3010BD06F0A5FEB0F5FA7FF7D8BD
:100280000E4B00221A744FF480721A801B225A807F
:100290009A8040F20322DA804FF484721A811F227E
:1002A000DC605A81EFF3108472B600F005FC04B9EB
:1002B00062B60020DEE76FF01500DBE7C006002025
:1002C00010B5002840D1234C237C032B39D059B1E1
:1002D000002A3CD00239052936D8DFE801F00312A4
:1002E00027352A2D137863700020FFF709FF0028B7
:1002F000B7BF0123022323746FF00B00A8BF237440
:1003000010BD13791BB353790BB31188FB291ED889
:1003100053881B3B9BB2E02B19D81A2917D91368B5
:10032000C4F802300C4B92889A80DDE71378637230
:10033000DAE713886381D7E71388FF2B07D8237286
:10034000D2E74FF0FF30DBE76FF02C00D8E76FF01B
:100350001500D5E7C0060020C2060020F8B50D46FE
:10036000064620B319B311F0070420D1114F3B7C8E
:10037000012B02D16FF00B00F8BD032B02D14FF01F
:10038000FF30F9E700F060F80028F8D02846FFF7C2
:10039000B7FE0028EEDB0CF0FDFD3046214601F0F3
:1003A00087FCFFF747FF03233B742046E4E76FF029
:1003B0001500E1E7C006002010B5064C237C032B96
:1003C00003D101F08BFC02F009F90AF072FD002064
:1003D000207410BDC006002050B1074B03F1140279
:1003E00053F8041B40F8041B9342F9D100207047D6
:1003F0006FF01500704700BFDDCB010008B501F0BC
:1004000023FCBDE808400249012000F0F7B800BF16
:10041000DD00000008B501F02BFCBDE808400249F2
:10042000002000F0EBB800BFB9000000024B0268EA
:100430001A600020704700BFD4060020014B1B68E3
:10044000184700BFD4060020024B1868003818BFB8
:1004500001207047D4060020074B4FF0FF3141F6D2
:10046000FF72C3E9001205490022C1E900221F21E1
:10047000C3E90212704700BF00000020D806002028
:100480003F280CD801380B4BC0F3421200F01F007C
:1004900053F8223023FA00F000F001007047FF28E3
:1004A00006D04038C0F34212034B00F01F00EFE7C4
:1004B0000120704700000020D80600200146074BAD
:1004C000006849681A4603C240F48C221A6041F061
:1004D000107242F4FF625A60002070470000002052
:1004E0000246034B0068516803C30020704700BFF9
:1004F000D80600200246034B0068516803C3002061
:10050000704700BF080000200138064BC0F34212BC
:1005100003EB820300F01F009B6823FA00F000F059
:100520000100704700000020F0B50C88C37C0288F1
:10053000A5B2C4F30E0404F118060233865B1A4414
:10054000334497B213FA82F3013B4288B3FBF7F3CB
:1005500013FB07439BB29A42044A93BF22EA050366
:100560002A4013439BB20B80F0BD00BF0080FFFF09
:100570004A1E062A08B50346084604D84FF4D1712E
:100580001520FFF71BFE094A914202D940F2A31140
:10059000F6E711B903B1196008BD2BB11B68002241
:1005A000C3E901211A1D1A600430F5E7FAFFFF7F45
:1005B00010B5114B00EB41041A786389B3FBF2F3D9
:1005C00003FB0223013A1A44B2F5706F0279807876
:1005D00028BF00231A440B18B2FBF0F100FB1121D5
:1005E0005B1AB3FBF0F100FB113313446FEA434392
:1005F0006FEA5343638110BDE0060020024B03EB1A
:1006000080035960704700BFE00600202DE9F04FDD
:1006100010F0070A85B0054604D040F26F1117208C
:10062000FFF7CCFD534F07F10C06B1460446B04628
:1006300057F8043B8DF80BA03BB101A898479DF8F3
:100640000A30082B01D9F521E9E79DF80B1041BBD1
:1006500005B131604F4506F10406E9D1002D70D097
:10066000DFF81491002289F800209646022758F8F6
:1006700027A0013FBAF1000F56D09AF804609AF80B
:1006800002C0FF2E61D039460023481C39D19C445A
:10069000BCF1FF0F40D90AB189F800E04FF49A711C
:1006A000BDE79DF80AC06046022838BF02204B1DF6
:1006B0005A0004EB4303441E2344BDF8084064443D
:1006C000013CCCF1000C04EA0C044042B4F5803F3C
:1006D00003EA000302D340F20511A0E775B19A1AAC
:1006E0000120326091701480D0709DF80C00107160
:1006F000019810814FEA104CA2F806C004FB0134A7
:10070000A8E758F8210028B190F804B0B34504BF19
:1007100080781B180139B8E7DBB2E6458AF8043067
:100720003CBF5FFA8CFE01227B1CA0D10AB189F884
:1007300000E0022640F6FF6A58F82670B7B9013E7D
:10074000FAD2601B05B0BDE8F08F0023E5E707EBA8
:1007500041033846A3F80AA0FFF72AFF09F101096F
:10076000BB785FFA89F18B42F1D8E8E74FF00009D6
:10077000F6E700BFE4060020E006002038B54FF69B
:10078000FF730380184B03EB810302461869A8B17D
:1007900084780379B3FBF4F104FB1133DBB219461F
:1007A00000EB4105B5F90A50002D0EDB0131B1FB1C
:1007B000F4F504FB1511C9B28B42F1D1002038BD0C
:1007C0006381BDE838400AF046BA00EB4104638912
:1007D000C3F30E031380C278002AF1D14FF4E57100
:1007E0001720FFF7EBFC00BFE00600201C4B03EBDB
:1007F000810370B51C69054644B3030404D54FF466
:10080000EC711720FFF7DAFC014620460AF005FAE2
:10081000FF28014604D02046BDE870400AF01BBA0C
:10082000A078B5FBF0F300FB1353DBB219460A1DA9
:1008300004EB4206B6F90260002E09DB0131B1FB80
:10084000F0F200FB1211C9B28B42F0D1002070BD52
:100850008B4201D00023E37004EB42025580DAE7BB
:10086000E0060020094B03EB810310B51C6901462B
:1008700020460AF0D2F9FF28014604D02046BDE800
:1008800010400AF0E8B9002010BD00BFE0060020CB
:10089000F8B5104B03EB810307461C69014620465F
:1008A0000AF0BBF9FF28054611D0E288238953EAF4
:1008B000024606D0014620460AF0CDF901463846E8
:1008C000B04720462946FFF773FE0020F8BD0520FB
:1008D000FCE700BFE006002038B50E4B827903EB41
:1008E00082030446186908B9052038BD8278E17989
:1008F0009142F9D24B1CE37100EB41035D89B3F9DE
:100900000A30002BF3DBA5800AF0A5F92060002057
:10091000EBE700BFE006002070B5044610F00300CE
:100920000E4603D04E211820FFF748FCFFF720FEAB
:10093000054624B1034831460460FFF719FE2846F6
:1009400070BD00BFFC0600202DE9F14FDFF870B04C
:100950009DF828A09DF82C901E46DBF80030074635
:100960000D4690461BB960211820FFF727FC524620
:100970000921404609F0D6FF4A4684B20921304693
:1009800009F0D0FF14FA80F1DBF800000AF019F941
:10099000386018B9286001B0BDE8F08F04442C60BD
:1009A000386853464146092209F07FFF28684B46C4
:1009B0000922314601B0BDE8F04F09F076BF00BF13
:1009C000FC06002070B50E46044609F0BEFF054641
:1009D000304609F0BAFF044B2A1821461868BDE8D2
:1009E00070400AF013B900BFFC060020024B1868E3
:1009F00008B10AF0DAB87047FC0600201F2AF8B5E3
:100A0000044626D804200323134D12FB003254B1B0
:100A1000A30703D068210920FFF7D0FB22F00303CE
:100A200029706C602B8122F003022823120403FB3F
:100A300001F001276B68120C0025EEB2B14200D81C
:100A4000F8BD14B126181F705E60104401352833BC
:100A5000F3E74FF0FF30F3E70007002070B5154AC9
:100A6000157853680021C8B2854203D8BA210920FD
:100A7000FFF7A4FB1C46184614F8286B01310EB989
:100A80002346F0E700219970128999610124D96108
:100A900059685C70920803F11E0403F1260524F8DE
:100AA000022FAC4243F8041F1144F8D100234361E4
:100AB000037070BD00070020134B012200214FF08E
:100AC000FF309A60C3F80012C3F80803C3F800159A
:100AD000C3F804259A60C3F80803C3F80015C3F8E7
:100AE00004250A490A4A03F580334FF40040C3F84D
:100AF0000825C1F88000BFF34F8FBFF36F8FC1F897
:100B00008001C3F80825704700F0004000E100E0D4
:100B10000000F63F0A46192302F8033B0448C36865
:100B2000C1F803300369536043699360704700BFA5
:100B30000C070020024B5A8C02435A845B6A184708
:100B40000C070020014B00215B6A18470C070020AE
:100B500010B5154C05F056F905F0F0FC208DFFF7A7
:100B6000F1FF237E63B12246104952F80C3BE3604B
:100B70006368536004F11900A36893600BF02EF9C9
:100B80000B4B228D93E8030002F0CCFA236B1888FC
:100B900002F04AFAA36B94F8341094F835009847A1
:100BA000002384F83C3010BD0C070020150B00001A
:100BB00038070020034B93F83C300BB1FFF7C8BF58
:100BC000704700BF0C07002070B51B4C256B236DD0
:100BD00023644FF481730646A4F8443094F854001B
:100BE00095F88B3095F8691000EB83002EB9FF283B
:100BF00003D195F868308B4201D004F0A3FF95F83B
:100C00008B309BB1A06D05F09BF9A16D206C05F0B8
:100C100071FC16B9304605F0E7F995F86810002028
:100C200005F036FA022384F83C3070BD206C05F0E4
:100C300087F905F083FCECE70C070020F0B590F88D
:100C40006940134A0B46012CD1E91C6792F85420E5
:100C500087B001F1780103F188034FF0010006D05D
:100C6000022C13D040F22C410620FFF7A7FA0024F3
:100C70000025CDE9013205900090CDE903453246CB
:100C80003B46012005F094FB07B0F0BD0446EFE7BA
:100C90000C07002008B5094B93F83C20022A04D029
:100CA00040F2E6212720FFF789FADA7A42F00102C2
:100CB000DA72BDE80840FFF74BBF00BF0C07002009
:100CC000F7B5184CE56D06460DB1A36C23B940F29B
:100CD000E9712720FFF772FAB4F84C306B702B786B
:100CE0002F4601F0030123F003030B4307F8033BF6
:100CF000B4F84C20A16C384608F0D4FC0DF1020287
:100D000001A9206E2564A76409F045FF019809F048
:100D100030FFB4F84C1030600122206E09F0D8FE8C
:100D200003B0F0BD0C0700202DE9F0412A4C94F8E7
:100D30003C30012B06460F465FFA83F804D040F69C
:100D400031012720FFF73AFA256B95F87C303BB14B
:100D5000002185F87C100420FFF7ECFE85F87D80EB
:100D600095F88030042B0AD11C490220FFF7E2FEDF
:100D7000E36E1B78991E4B424B4184F8743095F812
:100D80008B3023B1206B05F17801FFF757FF1EB1BF
:100D9000BDE8F041FFF7DCBE002FF9D0A36F30466D
:100DA00098470028F4D094F83430002BF0D1638CAD
:100DB0009A0708D594F87430002BE9D0BDE8F041CB
:100DC0000020FFF701BF002BE2D194F87C30002B0C
:100DD000F4D194F87D30EFE70C070020780700206D
:100DE0002DE9F04F8C4C8FB00023CDE90B3394F8F4
:100DF0003C30256B0791022B074604D040F6C20118
:100E00002720FFF7DBF9236C5A781E78A4F84C20D2
:100E100003221344A36406F0030895F88B30A4F86A
:100E20004420002800F0E680C6F3C009C3B105F0F5
:100E30009DFB831EDBB2012B04D8FFF789FE0FB0A8
:100E4000BDE8F08F60B9B4F84C304BB195F8823002
:100E500003F001034B4503D1012384F83530ECE75F
:100E6000B4F84C1019B1206E09F012FE014695F845
:100E70008120238DE165013243F40073D2B22385D2
:100E800082EA9603D80723D5069795F8822002F0C8
:100E90000103994562D04FF0000995F88A30002B84
:100EA00000F0CD8095F868C0BCF1010FD5E938237A
:100EB00005F1F00105F5807E4FF0010000F0B280F1
:100EC000BCF1020F00F0028140F22C41062098E7AD
:100ED00095F88030DBB1013BDBB2042B85F8812033
:100EE00012D84E4AD35C002BCED0B5F8B820A5F866
:100EF000BA20022B0DD1D4F884000BA909F071FDA2
:100F000098B940F2F9617BE740F2D76178E70423B2
:100F1000EBE7032B10D100F099FF10B940F20371F9
:100F20006EE700210820FFF705FED5E938320133CE
:100F300042F10002C5E9383295F87D30002185F88C
:100F4000801023B185F87D101020FFF7F3FD238D6D
:100F500043F4006323850023069396E7B4F84C30EE
:100F6000E3B108F1FF31012918D8218D41F48051F6
:100F7000218594F88810994206D294F8343043F0D1
:100F8000100384F8343086E7E16D002983D094F8AB
:100F9000891019B12020FFF7D5FD7CE70132B8F1A7
:100FA000030F85F8822011D1238D1D49012043F4C0
:100FB000805385F87C002385FFF7BCFDD5E93A32E4
:100FC000013342F10002C5E93A3264E708F1FF3229
:100FD000012A0BD8002B3FF45EAFD5E93A3201333A
:100FE00042F10002C5E93A32B94656E7002B3FF418
:100FF00052AFE3E70BB105F0F5FA94F88A3001330C
:1010000084F88A30238D4FF0000943F480632385F0
:10101000CDF8189041E700BF0C07002088BB010005
:10102000540700204FF0000C05900020CDE903C0CC
:101030004FF0FB0CCDE901EC009005F0B9F9E36D40
:10104000002B45D1B4F84C30B3FA83F35B0903EAC3
:10105000161384F87D30079B002B3BD1628C94F8EB
:101060008A30110702D594F874209ABB012B31D82D
:10107000A36F0120984768B394F8346056BBD4F846
:1010800030A094F854309AF88B209AF8681003EB4B
:101090008203FF2B03D19AF869308B4202D0FF20E4
:1010A00004F050FDD4F830B09BF8801000228DF889
:1010B0002920ADF82A20052900F23581DFE811F05A
:1010C0006100110114011401260126018446ABE7D9
:1010D0000123BCE704F0E6FFB9F1000F4CD1012376
:1010E00007939C4C238D5A0606D44020FFF72AFD17
:1010F000238D43F040032385069B6BB1B4F8072092
:10110000B4F805301343B5F87E2013431EBFB4F87E
:1011100009300133A4F80930002F00F01481B4F82D
:1011200005300133A4F80530002384F88A308A485A
:1011300001F068FF0B9830B109F01BFD002202722C
:10114000294601F053FB0C9B33B100221A720C228A
:101150000C98294601F018FB079B002B7FF46DAE1D
:10116000238D1B063FF56BAE8020FFF7EBFC238D34
:1011700043F08003238562E641460CA8FFF7A0FDFB
:10118000ADE7ABF8B82094F88B20ABF858200DF100
:101190002A010DA8ADF82A2000F04AFE38B10D98BA
:1011A00028B104228BF88020BDF82A2016E09BF895
:1011B000C720002A40F08F80D4F884000DF1290266
:1011C0000DF12A0109F0E8FB002800F08480BDF849
:1011D0002A20002A70D101218BF880106066A4F8C3
:1011E0007020002A00F0A28003309BF88130089321
:1011F0009BF882309BF880B0E066BBF1020F099348
:1012000009D0ABF10402012A00F292800378022B8C
:101210004FF0030B0ED0D4F8840009F018FC00281E
:1012200040F08980BBF1030F04D000F01BFE80F07A
:101230000106F6B2616E089A0B78D000099A00F0A8
:10124000080003F0F3030343900000F0040003439D
:1012500023F0100343EA061323F003034BEA0302CF
:101260000A70B4F870304B700222A4F868209AF823
:101270008A2006F0010684F87C60364E002A5CD095
:10128000002B5AD0A06D04F05BFE616EA06D05F0DE
:10129000F7F89AF86910012004F0FAFE012386F8A5
:1012A0008C3086F83C30B9F1000F3FF41AAF41465C
:1012B0000CA8FFF705FD14E79DF8291019B9018066
:1012C000817003226EE7017801F0030101290CBF50
:1012D0000321022180E70022ADF82A2001228BF8A9
:1012E00080201E48002279E7BBF85820ADF82A205C
:1012F000D4F884000DF129020DF12A0109F04CFB0C
:1013000000287FF451AF40F20E5179E50DF12A012A
:101310000DA800F08DFD08B10D9810B940F21D51D7
:101320006EE505223EE740F2275169E510465CE78D
:101330004FF0010B6FE701267CE7706E04F000FEB2
:1013400005F0FCF8A5E7B4F807300133A4F807303E
:10135000EDE600BF0C070020380700208A070020B8
:1013600010B5064B93F83C2002F0FF0422B91C761E
:1013700001F0D0FE204610BD0C24FBE70C07002036
:10138000094B0A4A10B51A60FFF7EAFF20B14FF483
:10139000A4712720FEF712FF00F0B0FC044C20657A
:1013A00000F0B0FCA06510BD841000209C1500006A
:1013B0000C070020F7B56D4C089FCDE9000194F8AB
:1013C0003C1001F0FF0511B90AB103B127B94FF480
:1013D00008712720FEF7F2FEDDE9000104F12C0C74
:1013E0008CE8030084F8345084F88A5084F835502F
:1013F00084F88C506584258584F87C5084F87D5071
:1014000084F874506566E566A4F870502564A56498
:10141000A4F84C50256BA3679DF8243084F88930DC
:101420006262A76304F0D0FB05F088F895F97000BC
:1014300004F056FC6E6AE86904F058FC304604F08B
:1014400071FD95F89B0004F05BFC236B93F89F31D2
:101450000BB104F0A7FB0AF0CEFF95F8692000F16C
:101460008201012004F0BAFC414B186804F060FDD1
:101470002B69C4F884306B692366236B93F885204D
:1014800093F86860A2F12901012903D993F8861025
:10149000292951D193F85E322BB1012E03D0012BB3
:1014A0000CBF0126022605F13007314638460AF006
:1014B000D2FC31460AF069FAAB8F95F86910834285
:1014C00028BF0346384684F88B300AF0B4FC95F800
:1014D0008B7095F86910B5F844600AF056FA0FB9A8
:1014E000043080B2864228BF0646F3B284F88830C2
:1014F00084F8543095F88B3023B105F178012846F3
:10150000FFF79CFB0120FFF75FFB236BD3F8B001D3
:1015100004F032FD002323606360A360B5F87E30E1
:1015200063802B88238095F89B302371EB6E0BB181
:1015300001221A6003B0F0BD243A012A0DD82729F0
:101540000DD093F8263113F0010202D19B07AAD5E2
:101550000222012E18BF1646A5E72729A3D193F82A
:10156000262193F861301340EDE700BF0C070020FF
:1015700084100020014B93F88C0070470C0700206A
:10158000024B93F82900C0F3C00070470C070020FD
:10159000014B93F88A0070470C070020950C00005F
:1015A000E10D0000290D0000B50B0000F0B5070C9F
:1015B000A7F5AA42144B543A012A03EA90231FD9F3
:1015C00027F4004042F6AA22801A18BF0120002208
:1015D000162116461F2487EA060562EA050501352D
:1015E00010D0DD03ADB245EA5606E503ADB20139D0
:1015F00045EA52024FEA53034FEA5404EBD1F0BDDF
:101600000020E4E70020FAE7E0FF3F0010B50121E9
:101610000020FFF727F9044670B90121FFF7E6F82B
:10162000044620B940F25D313920FEF7C7FD034B77
:1016300093F906100BF0ADF9204610BD9C07002071
:10164000024B987DC04300F001007047C40B00209E
:1016500008B50AF02CF900F049FD00F073FB0AF020
:1016600095FB01F03DFD03F04FFF094B00221A608E
:10167000084B1B214FF4A47098801A805980064BA8
:10168000064818605A829A7599805A749A8208BDE1
:10169000881000209C070020C40B002003021B00C0
:1016A000044B41F64C52C3E902221B221A74FFF785
:1016B000CFBF00BFC40B002073B5244DAB680363DC
:1016C000234B836104460AF0DEFF064600F02AFB46
:1016D000830654BF1B236B88A4F85A3058BF1A46A0
:1016E0001C4B297C1B6848BFAA88A4F85C2084F89E
:1016F000381066871BB194F9701020889847164EF1
:10170000204631460AF050F901236A886978E3855A
:10171000AB88019116F8121C0091033303329BB27F
:1017200092B204F1140104F11000FFF70DF92369DE
:1017300023B940F2B7613920FEF740FD636913B960
:101740004FF4D761F7E7002002B070BDC40B002052
:1017500000093D008C100020D60B0020024B1B68B6
:1017600003B118470C20704788100020034B5A889B
:1017700002801B7883700020704700BFC40B0020DC
:1017800037B583781A2B054608D8042B04D9144A98
:1017900022FA03F3DB0705D412241AE0292B01D027
:1017A0003B2BF9D12888B0F5706FF5D269460AF065
:1017B00025F988B9019B93F8182102F0FF046AB952
:1017C000AA7883F81921FF2283F81821684609F0C6
:1017D00008FC204603B030BD0224FAE70C24F8E7E9
:1017E0002000380438B50278447802F0010354EA46
:1017F000030102F0020201D1112038BDBAB9857887
:10180000002DF9D0002B18BF002400E01D46204613
:1018100009F053FB0028EFD0284609F04EFB0028C2
:10182000EAD0054B00209C74DD749882E5E7002B1C
:10183000ECD000242546EAE7C40B002013B500884D
:1018400069460AF0F7F8044620B9019890F82A3161
:101850001BB13A24204602B010BD90F8D23003F0FC
:10186000FF04002BF5D190F8C9309B0706D1FF2368
:1018700080F82A31684609F0B4FBEBE70249CA3028
:101880000AF0ACFAE6E700BF4DC30000F7B50778F1
:10189000EF2F05460C460FD890F901204378002A17
:1018A0000ADB8278900707D113F010001DD199064A
:1018B00003F0030202D51AB1122442E0032AFBD03E
:1018C0001E07F9D42979EA78EE7942EA012269798A
:1018D00042EA0142A97941EA06212E7A41EA06410B
:1018E0008A42E9D81F2A0FD8E6E713F0600FE3D148
:1018F00003F00702052A05D003F00F010D22CA40AC
:10190000D107D9D51A07DDD56A7A013A062AD3D884
:10191000AA7A032AD0D813F0040102D1023A012A8C
:1019200003D8EA7A012AC7D811B9AA7C032AC3D8F6
:101930002A7D48B1012ABFD12A7E012ABCD830B9FC
:101940001124204603B0F0BD022AF5D1B4E7DB072D
:1019500012D46B782A7D03F01803082B11D1022AC8
:10196000EED101213846FEF77DFF064678B10AF038
:10197000C4FFB8B10C24E4E700F094F90028E8D1E2
:10198000DEE7022AEDD02B7F002BEAD0D8E7012139
:101990003846FEF72BFF064640B3154B93F9061069
:1019A0000AF0F7FF30460BF0E4F829462070E8749F
:1019B00030460BF034F8EB7E0446002BC1D00028F3
:1019C000BFD1B16A0246684609F080F9B06A224682
:1019D000012109F0C7F9B16A6846042209F076F9D5
:1019E000B06A2246214609F0BDF9AAE70724A8E714
:1019F0009C07002030B50279042A8BB003464FD8EB
:101A00004088B0F5804F4BD826498D5C11440024A6
:101A10004A79ADF8004042F0100242EA45028D7A60
:101A2000C97B8DF8084042EA850242EAC10202F011
:101A30001F028DF80020BDF80020ADF809201A889B
:101A40008DF80B208DF80E00120A000A8DF80C207C
:101A50008DF80D408DF80F008DF810405A7B8DF8F1
:101A600011205A798DF812209A79D3F807008DF851
:101A70001320B3F80B209B7B8DF81A307F23059041
:101A80008DF81B3069464FF0011302A8CDE90734E9
:101A9000ADF818208DF82440FFF7F8FE0BB030BDEC
:101AA0001220FBE78DBB0100F7B50646FFF7AEFD40
:101AB00004460BF069F83378012B054661D12046C6
:101AC0000AF09AFF00287BD020460BF05DF818B191
:101AD00015B9122003B0F0BD20460AF00EFF08B180
:101AE0000C20F7E720460AF045FF07460028F7D10B
:101AF000204602F089FC0028EBD0ED0142F2107381
:101B000039462046ADB25D430BF02AF820460BF073
:101B100033F8014658B92A46204601F07BFE08B941
:101B20000020D7E741F666413920FEF747FB3946EA
:101B30000DF10600FEF722FE064608B90D20C9E7A2
:101B4000394600F0D9FBBDF80630338031462046D7
:101B50000BF01EF801213046FFF7AEFD2A46314654
:101B6000204601F057FE024610B141F68941DBE7FD
:101B7000144B9B68002BD3D006F58D7130469847E7
:101B8000CEE7002BA5D120460AF036FFC0B1204693
:101B90000AF0B3FE0028C3D020460AF044FD0546F3
:101BA00020460AF043FD0146002899D1002DB7D008
:101BB0002888FEF76DFE0028B2D041F6AB41B3E7AE
:101BC000422087E79C0700200278034672B14278E2
:101BD00062B142881A2A09D982881A2A06D9044A87
:101BE000006810609B889380002070471220704727
:101BF000C40B0020024B02689A600020704700BFAF
:101C0000C40B00200378A3F10A02112A9DBF024AE7
:101C10000020137412207047C40B002008B5094B34
:101C200001221A7002F0E0FB0BF071F909F03DFEA1
:101C3000FFF7A6FB002009F016F8BDE8084000F009
:101C4000DDBC00BFA807002010B5064C0649201DCA
:101C500009F0F5FB04F108000449BDE8104009F063
:101C6000EEBB00BFA8070020480000205000002065
:101C700010B5084C0849201D09F0E1FB04F10800EB
:101C8000064909F0DCFB04F10C000549BDE81040F1
:101C900009F0D5BBA80700205800002060000020F4
:101CA00068000020014B1878704700BFA80700208B
:101CB00010B5064C00F07EFC606809F0B8FBFFF739
:101CC000EFFC00F045FE0123237410BDA80700209F
:101CD000014B187C704700BFA807002010B5064CC8
:101CE000A06809F0A4FBE06809F0A1FBFFF7B0FCD5
:101CF0000023237410BD00BFA807002000487047D0
:101D0000B907002000487047BB080020C2080449FA
:101D100000F0070001238340885C03438B54704725
:101D200010000020014BD3E9000170471000002093
:101D3000034B1868C0F30020400040F001007047DA
:101D40001000002008B505F03DF9084A002332F8DC
:101D50002310814205D302EB83029378044A137067
:101D600008BD01330C2BF2D10023F7E7A2BB010021
:101D7000BD09002010B544682388A4F8683194F8A0
:101D8000683084F86711012B06D0022B04D040F292
:101D900011310620FEF712FA84F86A3194F869309E
:101DA000012B01D0022BF2D184F86B31044904F5E8
:101DB000AF700AF013F8002384F8243110BD00BF7F
:101DC000CBB40000406808490388A0F85A3190F865
:101DD000603080F85C3190F8613080F85D3100F25D
:101DE000511009F0F5BF00BFE1B40000024B002222
:101DF00083F822209A847047BE090020044B93F890
:101E00002220012A1ABF036001200020704700BF72
:101E1000BE090020054B93F82210012902461DBF80
:101E2000012083F822009A8400207047BE09002018
:101E3000054B024693F8220020B1136009B19B8C38
:101E40000B800120704700BFBE090020044B93F8AF
:101E5000220000229A8410B183F8222001207047CA
:101E6000BE090020034B93F82200B0FA80F040092D
:101E7000704700BFBE09002050B90A4A134601202E
:101E800003F8010B0868C2F801008A889A8070473D
:101E9000012805D1034B0A689A608A88D8719A8113
:101EA000704700BFE409002050B90B4B187888B187
:101EB000D3F80120B3F805300A608B800120704709
:101EC000012806D1044BD87920B19A680A609B8911
:101ED000F3E70020704700BFE409002010B9044B6D
:101EE00018787047012806BF014BD8790020704749
:101EF000E4090020F7B500238A888DF80600ADF8C4
:101F0000042008680B4A8DF80730019D14780146BB
:101F100002F5A872D8B2844201D8082008E052F82D
:101F2000087F5668AE4208BF8F4203F10103F1D12A
:101F300003B0F0BDF809002030B5094B01465C78CC
:101F4000002203F20113D0B2844201D8082005E038
:101F500013F8015F8D4202F10102F4D130BD00BFE0
:101F6000F8090020F0B5254D95F8984189B0224632
:101F700005F29911684607F095FB2146684609F07D
:101F8000B5FC0446B8B300EB4001C9B202A8FEF7A5
:101F900055FA631E95F8A161DBB2012495F89811FA
:101FA00005E0721CB2FBF1F001FB1022D6B206F183
:101FB00020020DEB020010F8202C002AF1D103EBD7
:101FC00043012031694406EB46022A4411F8187C8B
:101FD00082F8A27111F8177C11F8161C82F8A3710F
:101FE00082F8A41100F8204C013BAA19DBB2FF2BA8
:101FF00082F89941D2D109B0F0BD00BFF8090020A4
:1020000070B5064688B00C46002A4ED0294A92F890
:10201000A131D01890F8991119B9FF212820FEF7A5
:10202000CDF803EB43011144013391F8A251E5705F
:1020300091F8A35191F8A41161710021257180F8E4
:10204000991192F89811B3FBF1F001FB103382F86B
:10205000A13192F8C23123B9174902F5DD7009F0B8
:10206000BAFE657905F03F0545F0400565710D2222
:102070000021684607F0D6FAE3788DF80F3023790F
:102080008DF80E3004AA0423694630468DF80D50B1
:1020900007F026F99DF81F3023709DF81E306370FD
:1020A0009DF81D30A37008B070BD03216018FEF7C5
:1020B000C5F9D6E7F8090020651F0000044B5A78DF
:1020C000824286BF1B1893F84A010020704700BF68
:1020D000F8090020044B5A78824286BF1B1893F8F7
:1020E00042010020704700BFF8090020064B002283
:1020F0004FF461711A8083F8C32183F8C421A3F8D7
:10210000C61183F8C2217047F8090020014BB3F8CB
:10211000C6017047F809002030B50A4B5C7884424C
:102120000ED9184490F802012B3003EBC004A579B6
:102130000D7053F830001060A3889380012030BDEB
:102140000020FCE7F80900200246074810B590F887
:10215000C34124B1417821B1023003F0F7F92046A0
:1021600010BD0C46FBE700BFF80900202DE9F74F32
:102170002F4C9A46637883428046894656D9231865
:1021800093F8425185F00105F9B193F84A31E3B96A
:1021900045F002070135BAF1000F18D1FA070AD548
:1021A000062101FB084104EB0810524601F5857138
:1021B0008230FFF725FFBB0734D504EB08105246E9
:1021C00049460230FFF71CFF2CE02F46E3E794F866
:1021D000A1614FF0010B002DE0D0A319019393F8FA
:1021E000991199B90092DAB100F082FB06EB460131
:1021F0002144019B81F8A2014FEA102C009A81F83A
:10220000A3C1000C81F8A40183F899B194F8983126
:102210000136B6FBF3F103FB1166F6B2013DDAE7D6
:1022200047F00407384603B0BDE8F08F0027F9E710
:10223000F8090020074B5A78824209D91A1892F8F7
:1022400042212AB9062202FB003000F58570704752
:1022500000207047F8090020064B5A78824281BF5F
:102260001B1893F83A01B0FA80F0400998BF00209B
:10227000704700BFF8090020034B80F870101B68FE
:102280000BB1008818477047901000200B2808B544
:1022900004D940F20D112920FDF790FF014B33F8CE
:1022A000100008BDD2BB010030B50024848704644F
:1022B000B0F8444042F210754C43B4FBF2F4A0F87D
:1022C0004440541E05FB0343B3FBF2F3C387094BA1
:1022D000B3FBF2F30133A0F84830038F05FB03444E
:1022E000036BB4FBF2F459434463B1FBF2F10163B5
:1022F00030BD00BF005A620270B504460D4641BBB6
:102300004FF4227207F08EF9012384F88D306FF0BC
:10231000360384F8D930042384F8DA306FF03B03B5
:1023200084F8DB306F2384F8DC306FF03C0384F8F2
:10233000DD306FF07F0384F8DF302B2384F8D83052
:10234000FE2384F80E317F2384F8DE5084F8833036
:1023500070BD012923D10023A0F8B43180F8AB313E
:10236000826940F6B833A0F8B0301146438C78301B
:10237000FFF79AFF104B1B68062B01D001330CD1DD
:102380000E4B1B68063B083307D9E069FFF70EF9CF
:1023900018B9012384F89F31DAE70023FAE702290C
:1023A000D6D1B0F86A32D0F864228169BDE87040B5
:1023B0007830FFF779BF00BF081000200C10002014
:1023C0000346084671B13F2B0BD8074AD35C03F094
:1023D0007F02914205D08CBF0120002000EAD3107B
:1023E00070470120704700BFEABB01002DE9F743A9
:1023F0000E4669461546994609F000FB044620B989
:10240000019F35B9012387F88C30012003B0BDE866
:10241000F083D7F810802946404608F067FA014655
:102420000028F3D0134B5B88AB4221D3404608F021
:102430009CFB97F88C30A0F80140002B18BF0226B7
:10244000494600F8036B2A4607F02CF92946404616
:1024500008F087FA18B98B212B20FDF7AFFE6846EC
:1024600008F0BFFD019BA3F8A24187F88C40CCE7A0
:102470002046CBE7C40B0020FF230B7002234B70D8
:1024800083238B70014B1B78CB707047DC0B0020D3
:102490002DE9F84FD0F80480D8F8146030460C4687
:1024A00008F055FB054620B940F253111020FDF706
:1024B00085FE0146304608F058FBB5F800B01FFA1B
:1024C0008BF7824617B940F25711EFE7224B1B6892
:1024D00000F10309D3B998F8003098F8012023706F
:1024E0006378A4F802B002F00F0223F00F03134345
:1024F00023F0C00363709AF8003003F00303012B4C
:102500000FD0022B0DD040F27511CFE7B8F80000C4
:102510003A464946984705460028DCD12846BDE89A
:10252000F88F627863F305126270304608F023FB7F
:10253000054610B940F27F11B8E7FB2F02D94FF4DE
:10254000C771B3E73A464946201D07F0ABF830465D
:1025500008F06CFAE2E700BF9410002038B5134C85
:1025600010220021201D07F05DF80125257410229E
:1025700004F10803002104F11400C4E9013307F059
:1025800051F884F8205004F11803C4E90533084ACF
:1025900000236362A36284F82C30C4F82D30C4F8A1
:1025A000313084F835301360A36338BDDC0B002074
:1025B0009410002010B5084C2378FF2B04D04FF462
:1025C000CC711020FDF7FAFD06F0D0FE2070BDE8BA
:1025D0001040FFF7C3BF00BF1D00002010B5034C23
:1025E000207806F0DDFEFF23237010BD1D000020C3
:1025F000014B187806F0E4BE1D000020014B024A92
:102600001A60704798100020912400002DE9F341D2
:10261000DFF86881054608F11407D8F80830D8F8C3
:102620001840227A012A22D1D8F8382052B1137AE0
:102630001BB9BF211020FDF7C1FDD8F83840C4B93F
:10264000002083E01A7A012AFAD04D4A1C46EFF3A3
:10265000108172B650680068506001B962B6A3423A
:1026600008BFC8F83840237A1BB9EE21E2E73A46A2
:10267000EDE7267AF6B205232372731E0B2B6ED874
:10268000DFE803F06A062235676D3E6D6D6D6D5BA8
:10269000636813B940F20B21CCE7204629469847DE
:1026A0000420EFF3108272B6237A052BD9B24FF0D3
:1026B000000359D12372D8F83810A14201D1C8F8CB
:1026C0003830B2BB62B634E0636813B94FF40571B9
:1026D000B0E72946204698470346C3F30723012B5A
:1026E000ADF80400C0B22FD0022BDAD11AE0636833
:1026F00013B94FF407719DE7204698470020D0E7B3
:1027000063680BB9FE2195E70B222A700122198814
:10271000AA706A7100221869A5F80310AA7108F05E
:1027200085F90420D8F83830A34202D10023C8F834
:10273000383000283FF471AF08E0124B29461B687F
:1027400020469847034668B9267298B102B0BDE8A2
:10275000F08140F253216DE740F256216AE740F2E2
:10276000592167E70220DDE711B940F27A2161E7DC
:102770001846A6E7002B7FF450AF61E7DC0B002082
:10278000E00B00209810002010B51346027A22B109
:1027900040F201311020FDF711FD0A46BDE810405E
:1027A0000146014809F0F4BAE00B0020044890F813
:1027B0002C301BB90349243009F007BB704700BF18
:1027C000DC0B002083BD00000346064890F83C2047
:1027D0003AB190F8352022B900F82D3B024909F0B2
:1027E000F4BA7047DC0B00207924000010B50A46CB
:1027F000037A23B140F209311020FDF7DFFC0146D6
:10280000BDE810400148072309F0C2BAF00B0020D0
:102810001346027A0AB1037270470A46014601481C
:1028200009F0B6BAE00B00201B234FF01B12838483
:10283000038482618382C260038539B94FF4A47333
:10284000034AC3844384C261C3820261704700BFEC
:10285000480148010346F0B4B3F85420B3F84840A7
:10286000B3F84460DF8FB3F84250944228BF144657
:102870000846B3F84C20B3F85610DC878A4228BFCC
:102880000A46B3F84610A3F84220914238BF1146D9
:10289000A64238BF2646A742A3F84460A3F84610D4
:1028A0001FD1AA1A18BF0122B3F84A50B3F85040FA
:1028B000B3F852709E8FB3F84010A54228BF25464A
:1028C000B3F84E409D87BC4228BF3C46AE42A3F8B9
:1028D000404002D1A14200D12AB1F0BC034909F025
:1028E0007DBA0122E0E7F0BC704700BFE3BD000005
:1028F000094AD2E90003434083EAB01181EA432147
:102900004FEAF3435360054B116058434FEAF060C0
:1029100000EB8000704700BF1C0C0020BB79379E85
:10292000094AD2E90003434083EAB01181EA432116
:102930004FEAF3435360054B116058434FEAF06090
:1029400000EB8000704700BF20000020BB79379E5D
:1029500010B50A4C09480821FDF770FDD4E9003292
:102960001343F7D0064CFFF7DBFF2060FFF7D8FFDB
:10297000236860601843F6D010BD00BF200000201F
:102980001C0C0020174B184A9A60184A5A60184AC3
:102990001A60184A9A62184ADA62184ADA60184AC3
:1029A0009A61184A1A63184A1A62184ADA64184A6D
:1029B0009A64184A5A62184B184A9A60184A5A621E
:1029C000184ADA62184A1A61184A5A61184A9A6112
:1029D000184A1A63184A9A64184ADA64184A9A63B9
:1029E000704700BF9C10002043C0000073C000006F
:1029F000DFC0000091C10000E5C100000D2D000006
:102A0000FBC10000712F0000F92D0000C9C20000B9
:102A1000E5C20000452E00009C1100205FC00000B0
:102A20009BC200001DC20000C1C1000041C20000E5
:102A3000992D00006BC3000013C3000005C3000004
:102A400081C20000054B064A9A65064A1A66064B83
:102A5000064A9A65064ADA65704700BF9C10002056
:102A600067B6000009B700009C110020B3B5000054
:102A70008BB80000023A08B5232A00F29A80DFE8FA
:102A800002F012981E9B9B2E9830989B35414598DA
:102A900098499B9B5D5D74749898989898989898BD
:102AA0009898987B889102784368012A02D193F81C
:102AB000103101E093F819314B7002200EE04268AA
:102AC000D2F8BE31C1F80130D2F8C231C1F80530B8
:102AD0004368D3F80431C1F809300D2008BD4368BC
:102AE000E5E700F00BFA0028F8D148E011234B701D
:102AF00059238B700023CB7057230B7110234B711C
:102B00000620EBE7436893F80A31D5E7084600F062
:102B1000E3F9E8E70278436852B993F810213AB133
:102B200093F80D214A7093F80C318B700320D5E790
:102B300093F80B214A7093F80A31F6E74368B3F82B
:102B400054204A70120A8A70B3F81221CA70120A0D
:102B50000A71B3F850204A71120A8A71B3F8103121
:102B6000CB711B0A0B720920B8E7436893F8262142
:102B70004A7093F82731D8E7104B1B6823B940F20D
:102B80000D515120FDF71AFB0246232098470420DF
:102B9000A4E70A4B1B68002BF1D00246242098477B
:102BA00005209BE7054B1B68002BE8D0024625203B
:102BB000F5E74FF4A161E4E701208FE79C120020C4
:102BC0003F289ABF024B53F820000020704700BFF7
:102BD0009C1000203F289ABF024B53F82000002091
:102BE000704700BF9C110020F7B545682E69044668
:102BF0004FF6FF770DF102010DF101023046ADF8FD
:102C0000027007F0C9FE01A9304607F0EAFE40B1A4
:102C1000019807F0AEFF616800220272FFF7E6FD3F
:102C2000E8E7044905F19E0003B0BDE8F04009F073
:102C3000CFB800BFD7BF0000F0B5044685B00D4641
:102C4000FF2600F8A56C10F8A63CF3B1174F3B78AF
:102C50001BB15F211F20FDF7B1FA0C21381DFDF7D4
:102C6000EDFB3E70002304F8A53C2A46072302F83A
:102C7000033BD4F80930C5F80330D4F80D30536065
:102C8000D4F81130936005B0F0BD01A80C21FDF718
:102C9000D5FBA4F5B473039A1A6001AB03CB44F8D7
:102CA000AE0C44F8AA1C04F8A66CDBE7240C002048
:102CB00010B5054C23782BB90C21201DFDF7BEFB68
:102CC000FF23237010BD00BF240C0020024690F8A3
:102CD000C631BBB990F8C73103F0FF010BB100203A
:102CE0007047094B18780028F9D01970D968C2F8D4
:102CF0000411043303CBC2F8BE01C2F8C211FF2392
:102D000082F8C63101207047240C002038B5426893
:102D100092F8863004460D463BB1132B05D0113B8B
:102D20000F2B8CBF0120082038BD92F8C83013B992
:102D3000204609F00DF96268D5F80B30C2F8B631BB
:102D4000D5F80F30C2F8BA316368D5F81320C3F84C
:102D500000211A88A3F87522D5F80120C3F877223C
:102D6000D5F80520C3F87B226368B5F80920A3F8DD
:102D70007F226368002583F8C6516068054900F525
:102D80001B7009F022F86368162283F88620284613
:102D9000CAE700BF392C000038B5436893F8862095
:102DA000202A044604D04FF410711F20FDF706FAC4
:102DB00093F8C8101D88002283F8C72003F5C97056
:102DC00069B10B4983F8C820A3F89C5183F89B2173
:102DD00008F0FBFF6368002283F8862038BD0122DB
:102DE00083F89B11A3F89C51024983F89E21EFE7D9
:102DF0007DC100006FC1000038B54568AB6F13F0AE
:102E0000010419D1D1F801200C4BD1F80510134061
:102E10000B4AC5F8D830C3F3076343F008030A40F0
:102E200085F8DB30C5F8DC2009F092F8AB6F43F091
:102E30000103AB67204638BD0120FCE72FC904F72A
:102E40006FDB008010B5406890F88530042B2CD1E2
:102E5000D1F80130D1F80540C0F8D830C3F307638A
:102E600043F0080380F8DB3000234A1CC0F8DC4044
:102E700080F8C23080F8853090F8743103F0FF0498
:102E80000BB1002010BD0388A0F8763180F87541A1
:102E9000D1F80130C0F878315368C0F87C3104496A
:102EA00000F5B67008F091FFEBE70120EAE700BFFC
:102EB0005FC20000406890F8743153B90388A0F8ED
:102EC00076311A2380F87531024900F5B67008F0A2
:102ED0007CBF70475FC2000010B50446FEF722FFBA
:102EE000044A054B02400B40C4F80120C4F80530E9
:102EF000092010BD2FC904F76FDB008037B50C46E1
:102F00004568FEF70FFF0A4A0A4B0A4095F8D810A9
:102F10000192034000930B408DF800306B4603CBC9
:102F2000C4F801000920C4F8051003B030BD00BF8B
:102F30006FDB00802FC904F738B5DB04154604D5D4
:102F4000C37C13B10023036338BD046B01340463F5
:102F500009F0ECF9436B9C42F6D300230363034969
:102F60002846BDE8384008F039BF00BFBBC20000AA
:102F700038B5446894F88530012B054602D0A36F1C
:102F800098073AD494F8C9309A0713D44A7884F849
:102F9000D3204A88A4F8D4208A88A4F8D620D80759
:102FA00043F0020284F8C9200FD5154904F1CA0084
:102FB00008F014FF94F8C930D90711D4A36F9A0709
:102FC00008D558214020FDF7F9F894F82A31002B54
:102FD000EBD1EFE743F00203A367284608F0B8FF00
:102FE00094F88530012B4FF0000301D0002038BD4C
:102FF00084F8853084F8C230F8E70120F7E700BF95
:103000004DC3000070B54568044602F05BFA054BFD
:1030100085F883001B6801461BB12046BDE870405F
:10302000184770BDA4120020024B1B6803B118475B
:10303000704700BFA0120020F0B51F4D2B78002470
:1030400014709BB1013B6D68DBB21E1B012E0FDCBF
:1030500005EBC40655F8347076688E4208BF874287
:1030600027D0B84271EB060612D214700020F0BDD2
:103070001E19771005EBC70E55F837C0DEF804703F
:103080008445C6F347068F412CBF33463446DCE700
:1030900005EBC30455F8335064688C4208BF854281
:1030A00006D0A84271EB040428BF01331370DDE79A
:1030B0001C4614700120DAE7440C002010F00702CF
:1030C00008B503D063214820FDF778F818B1034B09
:1030D000197258601A70C80008BD00BF440C002067
:1030E000014B00221A707047440C0020FF230B7024
:1030F000074A0D234B7082238B701368C1F803308D
:103100005368C1F807309368C1F80B30704700BFAF
:103110005A0C002002481622002106F083BA00BF94
:103120005A0C002082B002AB03E903000B48437D38
:1031300093B1530610D50A880280D1F84022B1F825
:103140007E304260D1F844220549826043800222E9
:103150000C3002B0FFF75CBB02B070475A0C002085
:10316000ED300000094B53F8203070B503F52343D0
:103170000C461646A1334FF47A72B3FBF2F503F016
:10318000A3F834442C44204470BD00BFF0BC0100BF
:103190002DE9F04F8DB09A4690F8693002930446BD
:1031A0008946069208F08FF9834694F87300FFF77A
:1031B0006DF8834409F01FF994F886300393069B59
:1031C0001FFA8BFB00F1590783BB94F88430032B63
:1031D0002CD1039B0D2B29D1B4F85C324B4525D162
:1031E000D4F8E031C4F8D031A369B4F8B421C4F8FC
:1031F000D431B4F852321344C4F8D831204602F026
:103200001FF9D4E99823A262B4F85E22A285D4F80B
:103210006822226241F64B529342A3618CBF002385
:10322000012384F87230022384F88430B4F85052B9
:10323000B4F87E80A9EB05052DB204F50873A9EB5F
:103240000808002D04930FFA88F818DAD4E98E23C1
:10325000C4E99223012345460493CB4B1B7813B159
:1032600003F0A4FE70B9002694F88430032B00F21A
:10327000E081DFE813F06C006901BD008D01CDF83D
:1032800010A0EAE7B4F8C831012BECD994F88430E7
:10329000022BE8D094F8F261002EE4D194F8730088
:1032A000FEF7F4FF94F8843000F5C86B012B1FFA89
:1032B0008BFBD9B23ED194F88920A36A032A32D17C
:1032C000D4F8D42113445946D4F8D401079303F019
:1032D00031FED4F8D061079BD4F8D821C4F8D001CE
:1032E000861B59461846564303F024FED4F8DC31B9
:1032F000C4F8DC01C31A5946A0691E4403F01AFE43
:10330000B4F8B431D4F8D82143445B1B9B1AD4F8E9
:10331000E021013B821A02FB03660123C4F8E001AD
:1033200084F8F231A0E73046079308F052FB079B80
:103330000344C8E7A069594603F0FCFDB4F8B46142
:10334000D4F8E0314644761BC31A5E43E5E7012119
:10335000002008F03EFB8046A06A5946404403F036
:10336000E9FD5946C4F8DC01A06903F0E3FD09A9B1
:10337000C4F8E0010AA802F0A5FE099B0093D4E975
:103380009201DDE90A2303F0A7FE0290204609F02E
:103390004AF8A16AD4F8542294F869008D1802F012
:1033A0009BFFD4F8DC11029B203D6D1AED1B4544B8
:1033B00000F52340ED1AA1304FF47A73B0FBF3F01F
:1033C000A38D30312D1A03EB410194F869003A4680
:1033D000FFF7C8FED4F85432EB1A2230B3F5917FD0
:1033E000C4F8E40159D240F2C7413020FCF7E6FEB0
:1033F000A36AD4F8D4015946184403F09BFD5946FA
:10340000C4F8DC01A06903F095FDC4F8E001204692
:1034100009F009F8A36AD4F8D4511D44B4F8B431C2
:10342000002B40F08D80BAF1000F00F0898094F8F5
:10343000690002F051FFD4F8DC11D4F8403294F85E
:1034400069206D1A203D1D44D4E98EBC4F4B53F8C2
:103450002220A5EB0B054FF47A7302F2E732B2FBA0
:10346000F3F21544ED1B00F52340A130B0FBF3F05F
:103470002D1AD4F8D821D4F8D03194F8690002FB81
:103480000313A18D303301EB43013A46FFF76AFE87
:103490000123C4F8E40184F88430A369D4F8E0215E
:1034A000E73B9B1ADF1B002384F82032D4E99232D9
:1034B0008742A5EB060528BF07465B1942F10002CB
:1034C000C4E98C32C4F8B07104F1300008F0B1FCEA
:1034D000042384F82932D4E98C23C4E99223B4F874
:1034E000A031A4F85092A3EB09031BB2002BD4BF68
:1034F00000220122520084F82822039A38440D2A1F
:10350000C4F8240200F09880BAF1000F40F09780D0
:1035100094F88430002B00F0AF80A169D4F8E0313A
:1035200004F50870C91A08F002FA80B2002800F009
:10353000A380169B03B1188001200DB0BDE8F08F69
:10354000D4F8DC116D1A94E7D4F8E011A369B4F84B
:10355000B421D4F8D801D4F8D0C15B1A5D43D4F8B3
:10356000DC314244121A3033013A0CFB003301FBC8
:103570000233A18D94F869003A4601EB4301FFF74D
:10358000F1FDC4F8E40188E7700C0020F0BC0100F4
:10359000D4F8E0E1A369A3EB0E035D4394F8853012
:1035A000292B03D094F88630292B0CD1B4F85C3247
:1035B000A9EB03031B0406D4029A94F85F32002B94
:1035C00018BF1A460292049BB4F8B4C143B3BCF1CD
:1035D000000F25D1D4E99023D4E98E01904271EBFC
:1035E000030302D340F21B51FFE694F869102C4B01
:1035F00053F82130D4E98E01CDE904010498203A32
:10360000121A03F2E7314FF47A7B03F52343B1FB3F
:10361000FBF10A44A133B3FBFBF3D21AD21B1544CE
:103620000CEB08010EFB01F1303102983A464900DB
:10363000A5E740F23351D8E6BAF1000F1CD0B4F838
:10364000C80118B3B4F8CA1194F8CC21A4F8CA116F
:1036500001FB0222904201F101050DDD002B0BDD83
:10366000002384F82832A4F8CA51FFF741F900F08A
:103670000700013084F8CC0104F5087104F5FC70F2
:1036800004F09EFE20B940F27D51AEE60146DBE734
:10369000069B83F0010384F8F03100204DE700BF62
:1036A000F0BC01002DE9F8430E46044618B9D521B7
:1036B0003020FCF783FD052900F2A780DFE801F048
:1036C0000376413DA52E03F05BFEC4E9460120468A
:1036D00000F0BCFFD4F80C01CB3803F0F5FC204619
:1036E00009F052FA054600BB0146204609F089F967
:1036F00000F1E506D4F80C01B04209D2301A3228A4
:1037000038BF3220032103F00BFE60B103F0E0FC70
:10371000C4F80C61204609F047FA45B12046BDE8DF
:10372000F84309F042BA0125F2E70025F2E7D4E9AF
:103730004623C4E94023BDE8F883BDE8F84302F01E
:10374000CDBC09F069F9042384F81131814688461B
:1037500003F0B8FC07220F46A9FB023102FB081157
:10376000D4E940525B1941EB0205D4F8E8203AB1A4
:1037700059EA080204D0984277EB050228BF0126D7
:1037800084F81061D4E94826121A66EB070694F80B
:10379000301139B9012A76F100010BDA204600F028
:1037A0005DFF03E0012A76F10006F7DB002384F8D1
:1037B0002831C0E7984277EB05010FD259EA080893
:1037C0000CD01B1A65EB07019A4276EB010005DB72
:1037D000012B71F10000A4BF1A460E460C490123CB
:1037E000914284F829314FF0000384F80831B34145
:1037F000B8BF0A4604F1C00004F5847104F094FED9
:10380000002898D140F2BA6152E7F12150E700BF99
:103810000040420F2DE9F84304460E46154690F845
:10382000283103F0FF07002B40F0948000F1C0081E
:1038300039467822404605F0F5FE47492246404683
:1038400004F0B8FDC4F8E860FF2384F8283166B1BD
:10385000FFF766F800F00700013086F8CC013F4919
:10386000324606F5FC7004F0A5FD40F202434FF02D
:103870000009A4F8103184F8089103F0ADFB00F1C1
:103880009E06204609F080F9B6B20146C0B307F0A3
:103890001AFE00F5CD6189B2284603F04BFB28449F
:1038A000C4F80C0103F00EFC301841F10001C4E92A
:1038B0004601012084F8EC00A4F81E9009F017FAE4
:1038C000E53D2D1AC4F8F0504FF0FF356FF0004180
:1038D000D4E94623C4E948510025C4E93E23C4E99C
:1038E000402384F8295142F2107204F58471404655
:1038F00004F01AFE38BB40F2BB113020FCF75EFC2E
:10390000204609F07EF8DFF85890E530C4F80C0145
:10391000B9F8020048B1E08B38B1FFF701F8B9F807
:103920000230B0FBF3F202FB1300064403F0CAFBC3
:10393000361841F10001C4E94661002DC4D0AD192B
:1039400041F10001C4E72946204609F030F9384624
:10395000BDE8F8830C27FAE7A536000041C4000053
:10396000700C0020F0B5002385B0CDE900330123B1
:103970008DF806306846FCF7AFFF70B1114E012399
:1039800033710023CDE9023302A8FCF7A5FF0446FA
:1039900038B10023337105B0F0BD009808F046FE41
:1039A000E8E7029D95F88430002BEDD005F5FC7713
:1039B000384604F079FD384604F0B4FD85F88440BB
:1039C000E2E700BF700C0020054B002201215A7174
:1039D00019701A7142F210725A80FFF7C3BF00BF0C
:1039E000700C0020014B5871704700BF700C002014
:1039F00008B502F083F8044B9A6882422ABF18790E
:103A0000002080F0010008BD700C00202DE9F34774
:103A10000446062900F2DA80DFE801F004867383A9
:103A20008A8FD300D0E98E01D4E99023904271EBC4
:103A3000030354D294F8F231002B50D094F8843020
:103A4000032B4CD108F0D7FC94F869A0814607F00D
:103A50003AFD064694F87300FEF718FC064494F805
:103A60007300FEF713FCD4E98E23D4F84072D4F827
:103A7000B05180465046BF1A02F026FC554A52F813
:103A80002A20A5F1590302F52342A1324FF47A719D
:103A9000B2FBF1F29B1AA3EB09031B1A09F182098D
:103AA00009EB5309B6B2603B08F5C86873431FFAC7
:103AB00088F8B3FBF8F360335A08A9EB53039F422D
:103AC00002D391444F4501D903F076FAA0693146FB
:103AD00003F030FA0023C4F8E00184F8F2313E4BE1
:103AE0001B7903F0FF0263B90092B4F8A41101231B
:103AF0002046FFF74DFB38B140F2D6613020FCF78D
:103B00005DFB042384F8843002F0CCF904F03EFC21
:103B1000B4F87E20A4F8EE210023A4F8523284F8F1
:103B2000F13102B0BDE8F087032380F88430F8E774
:103B300009F09AFAC4E99001F3E790F86900264F7A
:103B400008F061FCB530D4F8E031A56995288CBF48
:103B50000020C0F19600C218954288BFED1A7B790B
:103B60008CBF2D1A00251BB9236B9D4228BF1D4613
:103B700004F13000D4F8B06108F05BF9064402208B
:103B800003F0A2FBAD1B25EAE575854228BF05467B
:103B90000221284603F0C4FB10B103F099FA2E4429
:103BA000012340F245123146204608F098F9D4F836
:103BB000B031B860A069184402B0BDE8F04703F026
:103BC00083BA02B0BDE8F04708F02DBC40F2A47102
:103BD00094E700BFF0BC0100700C0020014B58803E
:103BE000704700BF700C0020074A03461068D3F8E6
:103BF0004920C0F80320B3F84D20A0F8072093F81F
:103C0000481007F0FABF00BF7C0C002070B50446D6
:103C10000E466588807D15F00401134618BF04F137
:103C200057013246FEF7A2FA4107054621D4C207E2
:103C30000BD5012384F84830A07DFEF7FBFA03681A
:103C4000C4F849308388A4F84D30AB0701D4012073
:103C500070BD094B1868D4F85730012184F856100C
:103C6000C0F80930B4F85B30A0F80D3007F0CEFF93
:103C7000EDE70020ECE700BF7C0C002038B5C38CDA
:103C80000F4D0133C3F30E03C3842B7C04462BB1C9
:103C900002F0D8F901F08CFC00232B7400232B7167
:103CA00094F869302BB101212046BDE8384008F076
:103CB0008CBD637C13B1E28C9A42F4D20021F3E70D
:103CC0007C0C002010B5074C2379012B05D1237CF7
:103CD0001BB102F0B7F901F06BFCA069BDE8104020
:103CE000FFF7CCBF7C0C002070B5254C2379012B4D
:103CF00004D04FF448612D20FCF760FA98B90125F3
:103D0000237C1BB102F09EF901F052FC002D36D04D
:103D1000A06908F0A6FC68B302F074F8E369BDE896
:103D200070409B6818472168A26911F8095B02F18D
:103D30004903E80992F8482007F0BAFD0028DED0D0
:103D40002068002107F087FF0028D8D02379A069D8
:103D5000012B02D040F65A41CDE72379E26903F105
:103D600080435269013B05F00F0152F82330984718
:103D70000546C5E7A069BDE87040FFF77FBF70BD8D
:103D80007C0C0020074A0346906903B909B9FFF784
:103D900075BF1379D26903F180431269023B52F86F
:103DA000233018477C0C00202DE9F043032985B00F
:103DB0000546174607D14388980723D40024204698
:103DC00005B0BDE8F083428890F86830D107DBB2D7
:103DD000F4D5002BF2D14FF00108DFF8D49099F818
:103DE0001060C6B107F099FD0828387016D002AAF5
:103DF0000DF10701FEF790F938B940F6F5612D2075
:103E0000FCF7DCF94FF00208E7E79DF8070002A98C
:103E100008F0D9FA06463B78082B08D1D9F80010EB
:103E200011F8030BC0F3801008F0CDFA0646D9F85C
:103E3000001095F84F2011F8030B05F15003C0F363
:103E4000801007F035FDD9F80010044611F8030B77
:103E5000C0F3801007F057FD8146FEF7FDF940B131
:103E6000B9F1080F1BD04846FEF728F980F001038E
:103E7000D8B23A78082A14D01CB9AC7DA21A5442A0
:103E800054416A8853079AD4002897D176B9EC7CBC
:103E9000444518BF002C0CBF012400248FE70020EC
:103EA000E7E780F001022240D4B2EAE7344686E731
:103EB0007C0C00202DE9F04F85B008230DF107029E
:103EC000052104468DF80730FFF76EFF064620B93E
:103ED0000026304605B0BDE8F08F734F39687A7C14
:103EE00011F8030B07F11203C0F3801007F0E0FC98
:103EF00080460028ECD13B68A169184691F88D20D6
:103F000010F8035B02EA551202F0010281F88D20DD
:103F1000D3F80320C1F803208288A1F807201D46AA
:103F2000A26915F81F1BC1F380119170D3F81F000F
:103F3000029002A928790871D3F80F00D061587D4A
:103F40001D7D000440EA0520DD7C28435062B3F863
:103F5000190082F8728040F2E24909FB00F090619A
:103F60009D7DC5EB451005EB800505EB85056D00D6
:103F70009585B3F8170009FB00F09062B3F81B00B9
:103F80001084B3F81D00508493F8243003F01F0010
:103F90005B0982F8990082F87330A56994F912A040
:103FA00005F18D0007F087FD40F20113A5F8683098
:103FB0004FF0FF0B85F86AB0414605F13000FEF77F
:103FC00033FC51462846FEF757F9A36984F87380FD
:103FD0001A88A4F8742084F891B04FF6FF72A4F800
:103FE00092209A69B2FBF9F2A4F88A201A8CA4F8FC
:103FF0008C205A8CA4F88E2093F8732084F890209B
:10400000627D9DF8070004F17E015AB394F84820C0
:10401000012A27D194F84E2002F0C002402A21D173
:10402000D4F84920C4F87E20B4F84D208A809A78CC
:1040300084F87720082803F1030504F18401D3F8FC
:10404000033004F1780227D0C4F88430AB888B8029
:1040500004F17701FEF760F840B94FF43E612D207E
:10406000FCF7ACF80022C4F87E20DFE794F8773044
:1040700043F0020384F8773004F16A000B4907F03B
:10408000A4FE0B4BA0691B6800223A71002B3FF481
:1040900020AF214698471CE7A367AB889380002395
:1040A000C4F884308B80E7E77C0C00201FC9000037
:1040B000AC120020032937B5044604D0052953D09B
:1040C000012003B030BD08230DF107028DF8073041
:1040D000FFF76AFE0028F3D0237C284D03B39DF838
:1040E000070094F8B630DBB9237884F8B730082895
:1040F00004F1B90229D004F1B801FEF70DF820B996
:1041000040F66E712D20FCF759F894F8B83043F062
:10411000020384F8B8301A4904F1AE0007F055FEE6
:104120002B6804221A7006225A702046FFF75CFDA5
:10413000286894F83820616B07F07EFD0323286817
:104140002B7101F0FDFE0020BBE72868034613F841
:10415000031BC1F3801184F8B810D0F80310C4F821
:10416000B9109B889380D6E7064B1B68002BEAD0DA
:10417000984780F00100C0B2A3E700BF7C0C00208C
:1041800007C90000A8120020F8B504460F4619B36D
:1041900000F12005284608F083FDA0B963881A07BE
:1041A0002ED5284608F093FD0646284608F078FDEF
:1041B000301AC0B208F09BFD474A93680344284672
:1041C000936008F049FD284608F04BFD01F098FD8A
:1041D0002179252001F0B6FC3F4E94F85620306836
:1041E0000023037043706388103B0D2B64D8DFE815
:1041F00003F05F635B0C634063636363636363400B
:104200002046BDE8F840FFF739BD06234370202360
:1042100003702046FFF7E8FC638823F008039BB295
:10422000152B05D094F83020E16A306807F0F5FCD2
:10423000306801F085FE022321793371002001F0FE
:104240006DFD054607B9F06063881B0704D508F0CB
:104250004BFD0544C4F8F4506388103B0D2B36D851
:10426000DFE803F038352F2F352F35353535353527
:10427000352F0C2343700346212103F8091B52B14B
:10428000D4F85720C0F80920B4F85B209A800121A7
:1042900007F0BCFCBDE7226DC0F80920B4F854203B
:1042A0009A8094F84F10F3E7062303704370B0E749
:1042B000022303700623F9E740F259612D20FBF732
:1042C0007DFF21790120BDE8F84001F0E1BE40F614
:1042D000F341F3E7F8BD00BF7C0C002038B54388FC
:1042E000102B044604D1BDE838400121FFF74CBF34
:1042F0000B4D2B7C23B101F041F9402001F096FEDB
:10430000286801F01DFE608810F0040002D12179B8
:1043100001F0BEFE002001F067FE01232B7138BDC5
:104320007C0C0020024B01219869FFF72DBF00BFD4
:104330007C0C002010B5124C237C1BB101F082FED6
:1043400001F036F9A06908F08CF938B12379012B16
:1043500009D040F684312D20FBF730FFA069BDE87D
:104360001040FFF78BBC2379E269A069D26803F1A2
:104370008043013BBDE8104052F82330184700BF8E
:104380007C0C002010B50748037903F0FF0433B913
:1043900014222146043005F045F9204610BD0C24B6
:1043A000FBE700BF7C0C002010B50A4C00232371F2
:1043B000FDF7A4FC2060FFF7E5FF20B14FF4427148
:1043C0002D20FBF7FBFEE36913B940F20B31F7E751
:1043D00010BD00BF7C0C0020014B024ADA6170471F
:1043E0007C0C0020A8460000034B044A1A60044BD2
:1043F000044A1A60704700BFA8120020B53E0000B2
:10440000AC1200207BC70000F8B5057DAF1E044646
:10441000FFB2002D3AD0012F2DD800F1500190F8B5
:104420004F0007F070FA0828064624D0FDF752FE28
:1044300010BB023D18BF0125012F8CBF00270127AB
:1044400084F848506775A675FDF760FE054602F0D2
:1044500039FE154B0022E5FB0301C4E9100184F885
:10446000562011462046FFF7D1FB70B940F2A34118
:104470002D20FBF7A3FE0826022D09D104F14901E6
:104480000020FDF711FD60B90020F8BD0826F5E712
:1044900004F149010120FDF707FD0028F4D00125B2
:1044A000CAE70025C8E700BF40420F00F0B5444E00
:1044B000327985B0044602F0FF0312B90278FF2A70
:1044C00004D140F6DC112D20FBF778FEB36080F8B4
:1044D00069303C4B00933C4B01933C4B0293F36996
:1044E00068465B68039301F023FD01F06DFB01F06A
:1044F000A9FD01F05DF8364801F0F8FB04F1200554
:10450000344801F00FFD284608F0A6FB284608F0C5
:10451000A8FB01F0F5FB2179252001F013FB94F9AC
:10452000120001F0DDFB04F12C01A06A06F03FFC53
:1045300004F134010746A06A06F060FC0546DFB1CD
:10454000237FCBB1B4F92650ED43ED0F637D13B952
:1045500063885B0709D5D4E910126FF000439A42D3
:1045600008BFB1F1FF3F0DD19DB930680330FDF7B1
:10457000EBFD307405B0F0BD002DE7D0657F002D58
:10458000E0D1E3E702F09EFDD4E910239042994187
:10459000EAD3012229462046FFF738FB50B1FDF748
:1045A000B5FD054602F08EFD0B4BE5FB0301C4E9AA
:1045B0001001DAE7002DD8D040F61A2183E700BFBA
:1045C0007C0C002035430000E93C0000853D0000E4
:1045D000D6BE898E5555550040420F0073B504462E
:1045E000FFF764FF00212046FFF7CEFD236E0BB1DD
:1045F00001221A606388DB0721D50023114EA569CB
:10460000CDE90033FF2373746846FCF765F9B0B950
:10461000009CA542F8D06A7A607A05F10A0304F199
:104620000A0107F045F90028EED0A3787374D4F896
:104630000330C6F81230044BB4F807209A8002B059
:1046400070BD00BF7C0C00208E0C0020024B9861D6
:10465000DB691B68184700BF7C0C002043881B07E0
:1046600010B5044611D583690A493C2280F87320AD
:104670001B88A0F87430FF2380F891304FF6FF7349
:10468000A0F892306A3007F0A0FBFF2384F869306D
:1046900010BD00BF1FC900006BC90000DD42000053
:1046A00071C90000B5400000DD450000C53C0000B8
:1046B00025430000984600009C460000A4460000E8
:1046C0000138022808B503D9C4212F20FBF776FD55
:1046D00013290A4B05D811290CD8102907D0D2214B
:1046E000F3E71529FBD103EB4003D88801E033F849
:1046F000100008BD03EB40039889FAE770BC010085
:104700000C4A1178034689B9906833B9B0F858104B
:10471000828F91420AD8FFF76BB993891B0707D59F
:1047200090F88700073818BF0120704700207047B5
:10473000012070479C0C00202D4A38B5948903460F
:104740001C43402B9068948104D10421BDE838407B
:10475000FFF75CB9802B01D10521F7E703F00304D3
:10476000032C04D140F63F313120FBF727FDDD0754
:1047700006D50C6811612478062C0FD00B2C19D0AB
:104780009C0706D509680978117505291DD00B29E4
:1047900027D09B0644BF0823137038BD90F886408D
:1047A0001C2CEDD100240025C0E93845012480F8F7
:1047B0008A40E5E790F88640122C01BF002480F87B
:1047C0008A40012480F8C840DAE790F8861018295A
:1047D000DFD100240025C0E93A45012180F88B1083
:1047E000D7E790F886101129D3D10021F6E700BF52
:1047F0009C0C002013B5044601A8FDF7FFFA20B970
:1048000040F625113120FBF7D9FC22220021019826
:1048100004F008FF0199074801F8034F2246FEF70C
:1048200029F9FDF7F7FA10B940F62C11EAE702B0C2
:1048300010BD00BFA00C0020254B70B59C6894F8FB
:104840005E5294F85F62002D3ED194F86810002EFD
:104850003CD194F8693084F8681084F86930FF23FB
:1048600084F86A301B4B1B680BB12046984794F8BC
:104870002431012B01D0354303D017480021FDF727
:1048800079FA04F13006304607F0D3FA04F2351114
:1048900005462046FDF7DEFF20460621FFF7B6F865
:1048A000304607F0C6FA854204460BD202F06AFD94
:1048B0000146601B322838BF322002F031FD10B1B2
:1048C00002F006FC012070BD2946C0E73346C2E76E
:1048D0009C0C0020BC120020A00C00202DE9F84305
:1048E0006A4C0646A568002840F08C80A3891A0708
:1048F0002DD595F80E31FE2B04D140F2F751312021
:10490000FBF75CFCFE2385F80E3195F886301E2BF4
:1049100006D185F8C700201D07F024FB85F88660C6
:1049200095F88530242B0AD195F88630A3F124021E
:10493000062A2AD9322B28D0252385F8853095F8E8
:104940008730072B02BF0223637585F80E31A389D8
:10495000DB071CD4A3895F077CD4990740F18480CE
:10496000207DA36801220D2883F80F2179D011281A
:1049700000F08680072800F08580FEF72BF90346BB
:1049800000286FD140F2EA51B9E73223D5E7D4F8D5
:104990000880216998F88630D1F80090113B0F2BE0
:1049A00099F8007009D8BB1EDBB2092B6CD840F215
:1049B000333222FA03F3D80766D509793846FDF772
:1049C000FFFC20B93946324807F0F4FA3AE0012FEB
:1049D00001D9162F22D198F8850007F0D8FA40B1F6
:1049E00098F88530242B04D0252B07D1322388F862
:1049F00085303846FEF7E4F803461CE0162F14BF56
:104A00000226202623781B0705D595F88630113B12
:104A10000F2B98BF08263046BDE8F883112F15D01C
:104A200005D8072F14D00D2FE3D11A4B05E0142F12
:104A3000DFD1194B1B68002BC4D0226914481279AE
:104A400049469847002885D00646DBE7134BF4E734
:104A5000134BF2E795F88720062A04BF01226275FE
:104A60007BE7104B0A489847A389DA06CAD5A368A2
:104A700093F886200A2AC5D10B2283F88620C1E745
:104A8000094BEFE7094BEDE70826BBE79C0C00203C
:104A9000A00C002079CE0000B0120020C1CE000092
:104AA000B14A0000C7CD0000E5CD000015CE0000E2
:104AB00070B54D78A5F10E03DBB2152B04460DD869
:104AC000012101FA03F640F25122164208D1426850
:104AD000152B92F8852027D0082B07D0002070BD19
:104AE00002462846BDE8704008F005B9252A01D0E5
:104AF000322AF3D1204607F022FA636893F8862021
:104B0000262AEBD093F8D92022F0010283F8D9208D
:104B1000626892F8D93023F0080382F8D9301A215C
:104B20002046FDF727F9D9E72C2AD7D1024B1B687D
:104B3000002BD3D09847D1E7B81200202DE9F041DF
:104B4000A0F10E040029E4B208BF1F21172C134660
:104B50000AD80126A64040F251273E4207D116F45A
:104B6000600F23D1082C07D00020BDE8F081BDE8FC
:104B7000F041002108F0BFB8546894F88520252A38
:104B800008D11846FDF7F6F8002384F8853084F83C
:104B9000C230E9E7322AE7D194F88620A2F1240155
:104BA0000629F1D9322AEFD02A21EAE7054A14680A
:104BB000002CD9D00A46014618462346BDE8F041EC
:104BC000184700BFB41200202DE9F84FB54F0E462C
:104BD000B989BC688D0556BFB4F8B42000230132F2
:104BE00004F1780A804646BFA4F8B43084F8AF31A7
:104BF000A4F8B420504608F02EF930B10B4604F565
:104C0000967221465046FEF797F9BB8903F4C063BC
:104C10002BB194F88930002B46D0032B4BD094F85D
:104C20008920BB89012A04D1180544BF022284F8D7
:104C30008920B8F1000F40F0948059065DBFB4F8A8
:104C4000C821013292B24246A4F8C82103F00A02F8
:104C50000A2A0CD13A7D022A09D123F008033046F2
:104C6000BB81FFF73BFE08233043C6B2BB81304611
:104C7000FFF734FEBD6895F80E313043FE2BC6B207
:104C80003CD1DEBB95F88730063B012B36D995F831
:104C90001831ABB195F81931A5F8BC6085F8103121
:104CA0000122022128462EE1012184F889102046A4
:104CB000FEF7ACFEB3E7022384F889300121F6E762
:104CC00095F886B0ABF1100B5FFA8BFBBBF1100FC0
:104CD00040F2EC80AB6FDA0702D532460921E1E7FA
:104CE000980740F1928032460C21284608F052F88D
:104CF00095F8C93043F0010385F8C930B4F8A831FC
:104D000094F8AC510133A4F8A831002D00F0F281E1
:104D1000FCF736FC10B10023A4F8A83194F88910F0
:104D2000012940F2228294F88730072B40F0FA8163
:104D3000B4F8B430022B40F21882B4F8B650013502
:104D4000ADB2B4F87E302B44A4F8A03194F8AD3164
:104D5000002B00F00E820123B4F87E201344A4F847
:104D6000A431BB89BD685B065FBFB5F8B431B5F847
:104D7000A6219B189BB248BF0023A5F8B43195F833
:104D8000183123B995F88730063B012B06D8B5F8C2
:104D9000BC30B5F8A6211344A5F8BC3095F8C21074
:104DA00031B1B5F8BE30B5F8A6211344A5F8BE3030
:104DB00095F9C620002AC1BFB5F8C430B5F8A601E0
:104DC0001B18A5F8C43095F8A73063B9B8F1000FE7
:104DD00040F061827B7D022B40F0128295F8103109
:104DE000062B18BF162395F8A62022B92E4885F861
:104DF000A730FDF7F9FE284608F090F8002384F864
:104E0000AB31BDE8F84FFDF721B8590702D532465E
:104E1000132147E71A0706D595F8083185F81031B0
:104E2000324607213EE713F0300F35D095F81B319D
:104E3000002B5BD195F81A31CBB195F88630292B30
:104E400005F58D7105F25E2224D095F88530A3F129
:104E5000290043424341284606F0EFFFAB6F23F0A1
:104E6000200343F01003AB67002385F81A31AB6FC2
:104E7000DA063BD505F235112846FDF7EBFCB5F80F
:104E80005230A5F81031B5F85630A5F8123100228D
:104E9000152107E70123DEE75B0627D50022242141
:104EA00000E700BF9C0C0020A00C0020D7F8089061
:104EB00099F88630182B32D013D8112B20D0162B0E
:104EC00024D095F88530002B67D195F88630103BBB
:104ED000102B6AD995F8B230002B66D0012212212E
:104EE000E0E6202BEDD1324606210BE0B86890F8C1
:104EF0008630262B41D0362BE3D10022112102E04F
:104F000032460B21484607F045FFF7E64846FDF7D5
:104F1000DDFE00283FF4F2AE00220421F2E799F80A
:104F20005832012B07D132460521484607F032FF9F
:104F300089F85862E2E699F85832022BD9B27FF428
:104F4000DDAE99F8C83053B1062389F810313246E6
:104F5000484607F01FFF002389F85832EAE703218B
:104F60000622B44807F00DF899F8D83013F0040F72
:104F700032460CBF0D211121EAE790F82431022BB3
:104F800002D100221721BEE790F82431012B98D1DD
:104F900090F82531002BF4D093E7092B05D195F833
:104FA000093185F8103101223BE7BBF1100F7FF684
:104FB000A5AEBD6895F88590B9F1000F7FF49EAE5F
:104FC00095F82B313BB101220E21284607F0E2FE75
:104FD00085F82B91AEE795F82A3183B195F8C99001
:104FE00019F0030B0BD101220C21284649F00109CD
:104FF00007F0D0FE85F8C99085F82AB19AE795F8B0
:105000001A3133B395F81B311BBB95F88630292B29
:1050100005F58D7105F25E2219D095F88530A3F162
:10502000290043424341284606F007FF002385F844
:105030001A3101221421284607F0ACFEB5F852308F
:10504000A5F81031B5F85630A5F8123156E601230F
:10505000E9E795F82431012B3FD195F82531002B54
:105060003BD195F88630A3F12402062A35D9322B9C
:1050700033D095F86800012806D0022804D040F209
:1050800011310620FBF79AF895F86910012901D033
:105090000229F4D1022895F826210BD0012A14BF49
:1050A0000022012242B90A3B042B7FF627AE0122DF
:1050B0001621F7E5022AF2E7022995F827210AD0FE
:1050C000012A14BF00220122002AECD059480021F5
:1050D000FCF750FE12E6022AF3E7574B1B68002B41
:1050E0003FF40CAE53489847FE2801463FF406AE05
:1050F0000122D7E5FCF73EFA08B1A4F8A851FCF765
:1051000047FA00283FF40AAE94F8AF310133DBB21E
:10511000022B84F8AF3182BF0023A4F8A83184F8B1
:10512000AF31FBE594F8B2301BB194F885300F2B0A
:105130001BD1B4F8B420B4F8BA30B4F8B6509A42DF
:10514000A5F1030550462CBFAD1AED1A07F083FEFA
:1051500068B1D4F8AC30D4F8A820033B9B1A9D4228
:10516000A8BF1D46012D3FF7EBAD0125E9E52B4614
:10517000F5E7012D7FF6EFAD94F8863013B10B2BD8
:105180007FF4E9AD94F88530002B7FF4E4AD94F81A
:105190008730002B7FF4DFAD02297FF4DCAD94F87B
:1051A000AF31002B7FF4D7AD2069B4F82E9005F015
:1051B00047FC00283FF4CFAD94F80E31FE2B7FF46E
:1051C000CAADB4F8A231012B7FF6C5ADB4F8A82161
:1051D000238C9A42BFF4BFAD9B1A9BB2013DADB286
:1051E000B5FBF9F59D4228BF1D4619FB05F3003DAF
:1051F00003F1010318BF01259BB284F8AA51ABE566
:10520000012B09D195F88830002B7FF4ECAD0021FB
:105210002846FEF7FBFBF1E586B1F00639D43107ED
:1052200039D4B20639D4B30739D14FF42C613120C7
:1052300028E700BFA00C0020C012002039B1B5F84B
:10524000BE10B5F8C030994201D32223CBE5002A25
:1052500005DDB5F8C420B5F8C0309A42F5D2B5F8EE
:10526000BC20B5F8B6309A420AD295F88920B5F834
:10527000B43052B1B5F8B6209A42C8D80823B2E586
:1052800095F81831002BE0D1EFE7052BBFD93E236D
:10529000A9E51E23A7E53D23A5E52323A3E52A23AE
:1052A000A1E500BF614B73B50122002504461A71C8
:1052B00098609D811D705D75FF2380F8AB31B0F85B
:1052C000A231D3B190F80E31FE2B16D190F81831DF
:1052D0009BB190F88730063B93420ED990F8193174
:1052E000A0F8BC5080F81031022107F053FD84F87B
:1052F000AA510220FFF77EFA03E094F80E01FE287F
:10530000F8D1B4F8A611B4F8A821E38D013989B217
:10531000B1FBF3F31344A4F8A831B4F8B4300B4450
:10532000A4F8B430B4F8BA3001330B44A4F8BA305E
:10533000B4F8B83001330B4404F17806A4F8B8305F
:10534000304607F088FD20B1D4F8A8300B44C4F8EB
:10535000A830B4F8A231012B9CBF0133A4F8A231CC
:10536000002509B184F8AF5194F8863084F8AA5129
:10537000A3F10A02012A29D8B4F87E30B4F85C22DD
:105380009B1A19043BD404F25E2104F18D0006F04F
:1053900092FB84F88650FF2384F8C330B4F8A6212A
:1053A0002146304606F0CDFB94F886302049214A4C
:1053B000113B0F2B8CBF0023012301931E4B009345
:1053C00003C91E4BFBF7F6FF02B070BD292B16D1A7
:1053D000B4F85C22B4F87E309B1A1A040FD484F817
:1053E0008650FFF729FA014630B984F8240102B04B
:1053F000BDE87040FFF7E8BB84F82451CEE794F88D
:10540000853003F0FD03292BC8D1B4F87E30B4F801
:105410005C229B1A1B04C1D4002384F88530FFF75B
:105420000BFA01460028B9D1E1E700BF9C0C00202F
:10543000A00C002039470000C94B000001470000C4
:10544000D0F864328269934210B5044604D1D0F892
:105450006812026A914215D02288A4F88A2140F28B
:10546000E242B3FBF2F3A4F88C31B4F86832A4F84A
:105470008E31B4F86A320949A4F8903104F5C0704D
:1054800006F0ACFC02212046FCF736FF002384F82E
:105490008630032384F8893010BD00BFBFC00000F0
:1054A000074B93F900301844142804DC10F17F0FE7
:1054B00003DB40B27047142070476FF07E007047E6
:1054C000B40C002007B57F230DF107008DF80730DD
:1054D00000F0C6FD03469DF9070053B1094B5B7808
:1054E0005B4240FA83F0142806DC10F17F0F05DBE5
:1054F00040B203B05DF804FB1420FAE76FF07E00C1
:10550000F7E700BFB40C0020024B00221A705A705B
:10551000704700BFB40C0020064BD3F8000138B12F
:10552000D3F8040120B1D3F80801B0FA80F04009A3
:10553000704700BF00F00040034B00221A705A7001
:1055400010229A70704700BFB60C002070B5064656
:10555000022014460D4600F0A3F8064B01221A70F3
:10556000054B033CC3F81045C3F80865C3F8045560
:1055700070BD00BFB60C002000F0004008B502204E
:1055800000F08EF8084B01221A70084B0022C3F875
:105590000021C3F80421C3F8082103F580334FF438
:1055A0000002C3F8042508BDB60C002000F000403E
:1055B0000E4A08B5137883B10D4B4FF40001C3F8C0
:1055C0000815FFF7A9FF68B101235370094BD3F801
:1055D0000034DBB2937000231370BDE80840002054
:1055E00000F05EB850701023F4E700BFB60C002046
:1055F00000F0014000F00040094B1A7862B1094BFD
:10560000D3F8002152B1D3F8040140B1D3F8080116
:10561000B0FA80F040097047587870470220704710
:10562000B60C002000F0004008B5074B1A783AB1DC
:10563000FFF772FF30B1054BD3F80004C0B208BDCC
:105640009878FCE71020FAE7B60C002000F0004044
:1056500008B50A4BD3F80025032A04BF01229A603B
:105660000022C3F80025C3F8002500F067FF044BB3
:105670004FF40002C3F8082508BD00BF00F0004049
:1056800000F00140054B4FF40042C3F88020BFF307
:105690004F8FBFF36F8FFFF7DBBF00BF00E100E06C
:1056A00010B50446FFF7D4FF012C06D0022C0CD015
:1056B00054B18C213D20FAF781FD0B4B0222C3F837
:1056C00000250A4AC3F8142510BD074B0322C3F86E
:1056D0000025064AC3F8142503F580334FF4000271
:1056E000C3F80425F0E700BF00F00040B90C00202B
:1056F000044B1868062818BFB0F1FF3F0CBF01200B
:10570000002070470810002008B5FFF7F1FF38B1FE
:10571000044B1868063810F1080F94BF00200120D0
:1057200008BD00BF0C10002008B5FFF7E1FF38B13D
:10573000044B1868063810F1080F8CBF00200120B8
:1057400008BD00BF0C100020064B0022C3F800214A
:10575000C3F80C21C3F81021C3F80421C3F80821B1
:10576000704700BF0010004070B5144D95F82560DB
:105770000346084626B940F634213E20FAF71EFDBE
:105780006BB9012E2C6A95F8241005D100F0C4FDE8
:105790002044AB69C01A70BD07F070FCF8E7012B1C
:1057A0000AD1012E2C6A95F8241002D100F0A4FD34
:1057B000EEE707F06EFCEBE70020EAE7C80D0020FB
:1057C0000B4B93F8330088B193F832307BB1094B1F
:1057D000D3F8002242F00102C3F80022D3F85005AA
:1057E00000F0F600023818BF012070470120704712
:1057F000C80D00200010004008B5094B012818739F
:10580000084B06D0022808D040F641713E20FAF736
:10581000D5FC0322C3F8102508BD0422FAE700BF17
:10582000C80D00200010004008B570B9104B283199
:10583000D96018460F4900F03FFF0130012816D902
:1058400040F6BE013E20FAF7B9FC01280CD1084B06
:105850002931D9601846074900F034FF013001288A
:1058600005D940F6C801EDE740F6CC01EAE708BDEE
:105870002800002084BC010008B50C4B5B78012B8C
:1058800009D100F025FF013001280ED940F684210E
:105890003E20FAF793FC022B07D100F01FFF0130E6
:1058A000012802D940F68A21F2E708BDC80D002080
:1058B000094B0A4A1B8AB3F5166F3ABFA3F6381391
:1058C00043F48073A3F5166300F07F00C2F8083537
:1058D000C2F85405704700BFC80D002000100040FA
:1058E00010B50C46FFF788FF2046FFF7E1FF0F4A8F
:1058F0000023C2F81C31D2F8003243F48873C2F896
:10590000003240F20313C2F8343540F25B63C2F850
:105910003835FFF7F9FE40B9FFF706FF28B9D2F88E
:10592000683543F4C023C2F8683510BD001000404C
:1059300037B50D460446FFF75FFF2846FFF7B8FF6F
:105940001B4A01AB92F90D202946204600F050FE7B
:105950009DF8050000F0C8FE20B140F2B1713E2074
:10596000FAF72CFC9DF9040000F0BEFC114A40F24D
:105970000313C2F8343540F25B63C2F83835FFF7E1
:10598000C3FE90B14FF08053D2F88825D3F820336E
:10599000022C22F4FE420CBFC3F30663C3F30623BA
:1059A00042EA0323034AC2F8883503B030BD00BF82
:1059B000C80D0020001000402DE9F04106460C46BD
:1059C000174601F08DFB0028FBD02C4B2C4D4FF4DB
:1059D0000022C3F808259EBB01236B7095F8323076
:1059E0001BB9A97B3846FFF7A3FF264B33F81730C6
:1059F0004FF47A7203F5FA73B3FBF2F3224AE41A16
:105A00001E4BC3F8AC25AB691C4A204FE1184FF080
:105A100001081F4B85F83280C7F84015C2F8A83539
:105A2000AB6A43F40023AB624FF40023C2F80435A1
:105A3000FFF7C6FE0446B8B900242046BDE8F08151
:105A4000012E0CD102236B7095F832301BB9A97B63
:105A50003846FFF745FF094B0E4A293CD1E74FF482
:105A60001B613E20FAF7AAFBC7F84C80D7F84C35EB
:105A70008B42E1DA3046FFF7D7FEDEE700F0014067
:105A8000C80D0020FCBC0100001000400080004058
:105A9000408100400410004008B548221048002111
:105AA00003F0C0FD0F4B1B6823F004020A2A05D047
:105AB000102B03D0082B0ED1402200E024220A48EC
:105AC000FF2103F0AFFD4FF080430022C3F8082E02
:105AD000C3F8102E08BD0D2BEED03822EFE700BF23
